:020000041000EA
:1000000000B5324B212058609868022188439860DF
:10001000D860186158612E4B002199600221596106
:100020000121F02299502B49196001219960352056
:1000300000F044F80222904214D00621196600F024
:1000400034F8196E01211966002018661A6600F04E
:100050002CF8196E196E196E052000F02FF8012189
:100060000842F9D1002199601B49196000215960AB
:100070001A491B48016001219960EB211966A021F2
:10008000196600F012F800219960164914480160C1
:100090000121996001BC002800D000471248134993
:1000A000086003C880F30888084703B5996A0420EC
:1000B0000142FBD001200142F8D103BD02B5186610
:1000C0001866FFF7F2FF186E186E02BD00000240BE
:1000D000000000180000070000035F00212200005C
:1000E000F4000018222000A00001001008ED00E03C
:1000F00000000000000000000000000074B24E7A12
:1001000000200420F7010010C3010010C5010010F9
:10011000C1010010C1010010C1010010C101001097
:10012000C1010010C1010010C1010010C701001081
:10013000C1010010C1010010C9010010CB01001065
:10014000CD010010CD010010CD010010CD01001037
:10015000CD010010CD010010CD010010CD01001027
:10016000CD010010CD010010CD010010CD01001017
:10017000CD010010CD010010CD010010CD01001007
:10018000CD010010CD010010CD010010CD010010F7
:10019000CD010010CD010010CD010010CD010010E7
:1001A000CD010010CD010010CD010010CD010010D7
:1001B000CD010010CD010010CD010010CD010010C7
:1001C00000BE00BE00BE00BE00BE00BEEFF3058054
:1001D000103800BEF2EB8871182A0010342A001083
:1001E0003402001090A31AE700201F49086006C8D7
:1001F00081F3088810471D48006800282FD10DA4FE
:100200000ECC002902D000F012F8F9E71849194A7B
:10021000002000E001C19142FCD1174988471749ED
:1002200088471749884700BEFDE701C901C29A42C5
:10023000FBD37047342A0010C0000020700F00204C
:10024000E43800100000042000000420E43800100E
:10025000001004200010042000000000704709482E
:1002600001F070FE0047000008ED00E0000000D043
:10027000700F0020D8200020BD1D0010DD020010EE
:10028000B11E00105756000006005250ABB3605329
:10029000CC29001006005250861C0302DC290010F5
:1002A000060052505422A29DE4290010050052502D
:1002B000DE65F468E4380010F8B5C046044B10B5AC
:1002C000002B03D00349044800E000BF10BDC04626
:1002D000000000008C14002070290010F0B5DE46EC
:1002E00057464E464546E0B58BB002F06FFA02F035
:1002F000E3F901F063FFFC21890501F014FF80217F
:10030000C90501F0F6FE051C02F0DAF901F056FF0E
:10031000FC21890501F007FF8021C90501F0E9FEF4
:10032000041C122000F0B8FAD02680233606DB0227
:10033000B36200220121122000F09CFA132000F089
:10034000ABFA80231B03B36200220121132000F0CB
:1003500091FA142000F0A0FA80235B03B36200221C
:100360000121142000F086FA152000F095FA802370
:100370009B03B36200220121152000F07BFA02F0FA
:100380009FF901F01BFFFC21890501F0CCFEDA4941
:1003900001F0AFFE01F034FF83B2D84808221D21DE
:1003A000824602F0E1F96027C026002300220D21D9
:1003B0008346D34802F0D8F9D248DE233022052103
:1003C000814602F0D1F9D04BD04A0293D95B9059C3
:1003D000E0230392322202F0C7F9029B039A0890AD
:1003E000D95B9059E023422202F0BEF9002300229B
:1003F00025210990C64802F0B7F9201C01F000FF42
:1004000081B2281C884601F0FBFE434682B20921D6
:10041000C04802F0A9F90023002206210190BE483D
:1004200002F0A2F9DE23B0220521484602F09CF931
:10043000029B039AD95B9059E023B22202F094F90F
:10044000029B039A0690D95B9059E023C22202F0E6
:100450008BF9002300220D210790B04802F084F9A7
:1004600002F02AF9060002F02BF901F0A7FEFC21A8
:10047000890501F058FEA04901F03BFE01F0C0FEE5
:100480000C3E83B21D21B2B2504602F06DF900233A
:10049000009000224221A24802F066F90023049352
:1004A00005938023DB050027984611E0009A168902
:1004B00002F006F9B6B236B218360138864204DACE
:1004C000009A138904339BB213811E2000F004FFAD
:1004D0004146281C01F010FE391C051C201C01F0AF
:1004E0000BFE041C281C01F0C3FE01F089FE019ED6
:1004F00080B2F080201C01F0BBFE01F081FE80B2D2
:100500003081211C381C01F0F7FD002101F03AFE7A
:10051000002800D1C8E080231B069C466744291CA4
:10052000404601F0E9FD5B46061CD888043001F026
:1005300045FE011C301C01F02BFE002800D17CE0A0
:100540005B4681211B89C9059BB2201C9A4601F09C
:10055000D3FD8146504601F031FE011C484601F0B2
:1005600027FE002869D05B461889143001F026FE6A
:10057000211C01F01DFE00285FD04046694901F0B2
:10058000D2FD5B46804680211B89C9059BB2201C99
:10059000994601F0B1FD061C484601F00FFE011C12
:1005A000301C01F0A6FD544901F0A3FD5E4901F0A5
:1005B000BAFD011C381C01F09FFD4146071C281C98
:1005C00001F09AFD061C0021301C01F0E1FD00281D
:1005D00000D0ADE05549301C01F0E2FD002800D00C
:1005E000F7E0D02109064B6801225B0372D54B6806
:1005F000DB0C1A420AD15B461B891BB2042B05DDBA
:100600005B465A461B89043B9BB21381D0221206DB
:1006100053680121DB0200D448E753685B0D19429F
:1006200000D052E7009A13891BB2042B00DC4CE780
:100630001389043B9BB2138147E78121009BC905C5
:10064000DB88301C9AB2924601F056FD8146504636
:1006500001F0B4FD011C484601F0A2FD0028B2D013
:100660008121009BC9051B89201C9AB2924601F08A
:1006700043FD8146504601F0A1FD011C484601F0B2
:1006800097FD00289FD0009B1889143001F096FD3B
:10069000211C01F08DFD002895D04046214901F034
:1006A00042FD009B80466EE78121201CC90501F0B8
:1006B00023FD391C01F020FD061C02F001F8013871
:1006C00001F07CFD011C301C01F06AFD002800D106
:1006D00025E720E75B461E8901F0F2FFB6B236B28D
:1006E00018360138864291DA5B465A461B89043334
:1006F0009BB213818AE7C04600002041EC03002032
:10070000940300209801002000050020000600202E
:1007100000030020C8030020E8020020B4020020EB
:10072000AC010020666686BFCDCC4C3E00007F4306
:1007300001F0C2FF01F042FDFC21890501F0F3FC4C
:100740008021C90501F0D5FC051C01F0B9FF01F0BD
:1007500035FDFC21890501F0E6FC8021C90501F089
:10076000C8FC041C281C01F083FD01F049FD019E1A
:1007700080B2F080201C01F07BFD01F041FD049B64
:1007800080B20133DBB230810A2118001F000493CC
:1007900001F00AFCCEB2B81B0A21C0B201F004FC81
:1007A0003030039AC0B28300D358029F06994000AC
:1007B0000B6030363B5AF6B28B80B300D358079AA1
:1007C00076001360BB5B002793808023DB0598468F
:1007D00007E701F071FF01F0F1FCFC21890501F050
:1007E000A2FC8021C90501F084FC051C01F068FF12
:1007F00001F0E4FCFC21890501F095FC8021C9058C
:1008000001F077FC041C281C01F032FD01F0F8FC1B
:10081000019E80B2F080201C01F02AFD01F0F0FC66
:10082000059B80B20133DBB230810A2118001F0022
:10083000059301F0B9FBCEB2B81B0A21C0B201F09A
:10084000B3FB3030039AC0B28300D358029F08999B
:1008500040000B6030363B5AF6B28B80B300D35861
:10086000099A76001360BB5B00279380C0231B06A8
:100870009846B6E6074B80009C4660440368C90072
:1008800092000A435A400C231A4080235B01034321
:100890001A60704704C001400123D0228340120631
:1008A00093629361094A40219446830063441A6825
:1008B000C0004A4080311140802252011343196028
:1008C000034B9C46052360444360704704C00140CD
:1008D00000400140024B18688007C00F7047C046B7
:1008E00000C0064070B5EFF3108C72B60D4D2B684A
:1008F000002BFCD0BFF35F8F0724CB08C618C05C69
:1009000001230C40A3401C000440034207D11843BC
:100910003070BFF35F8F2C608CF3108870BD1000B7
:1009200001F0CAFA2C0100D00021044B044ABFF3A5
:100930005F8F02C39342FAD17047C046000100D0D6
:10094000800100D0044A1078431CDBB2172B00D979
:10095000102313707047C0466004002001238340B9
:10096000002904D0034A1360034A13607047034A06
:100970001360FBE780E200E000E100E080E100E0DE
:1009800001228240034B1B6813405A1E9341D8B288
:100990007047C04600E100E0024B10309B688000C9
:1009A000C058704700ED00E070B50D00EFF3108601
:1009B00072B60F4A1368002BFCD0BFF35F8F0D4B4C
:1009C00010309B6884001B590B4A934203D09D4210
:1009D00001D001F089FA074B9B681D51BFF35F8F6F
:1009E000BFF35F8F0022024B1A6086F3108870BD40
:1009F000240100D000ED00E0CD010010F0B5DE468E
:100A000057464E464546E0B50C0083B0EFF31088DC
:100A100072B65D4A1368002BFCD0BFF35F8F5B4B4F
:100A20005B499A68030010339F00D5598D4239D035
:100A3000A5424AD0574EAA1B2F2A33D801229246EC
:100A4000824091464846544A1268104001904846F8
:100A5000524A1060BFF35F8FEFF305829346002A7E
:100A600035D0934201D001F03FFA2A0053469A4311
:100A70009068844208D175E04B005B189B00F31826
:100A80009868A04234D01A00062151560029F3DAA2
:100A9000844253D0019B002B26D04A46404B1A601B
:100AA0003D4B1A60394B9B68DD51BFF35F8FBFF33D
:100AB0005F8F0022344B1A6088F3108803B0F0BCBB
:100AC000BB46B246A946A046F0BD0D00EAE72A00A3
:100AD00053469A4390688442D6D10620105613009C
:100AE000002809DA0D0031E04A462C4B1A60D9E79C
:100AF00006201856002822DB4200111889007418BD
:100B00008A46A1689960E179D97106216156997187
:100B1000002925DBA488F11A640524155444091919
:100B2000E0240905490D24022143998013181D4A28
:100B30009B001178F31899711070ABE713005946B8
:100B4000002914D1FF3191711749918015490A7814
:100B50009A71164A9B1B5B415A43120D0A7099E722
:100B60001349E2E70620105613000028C4DA114AA0
:100B70001149D21A083A5002400D014399800F4999
:100B800052080A43DA8085E7240100D000ED00E036
:100B9000CD0100106404002000E100E080E100E0ED
:100BA00080E200E0D320002001BDFFFFAAAA0000E0
:100BB00001BD00009E04002000F0FFFF00F8FFFFD1
:100BC00070B5EFF3058101240443EFF3108C72B686
:100BD000214A1368002BFCD0BFF35F8F1F4B050029
:100BE0001F4AED1A6D416A43120D1E4D8900AE6811
:100BF00052B27658A6421CD00621595691421CD0BA
:100C000012215956914222D01E215956914220D08C
:100C10002A2159560324914210D0134B19781A7087
:100C20008171BFF35F8F00220B4B1A608CF3108829
:100C300070BDAB680D4C5C50EFE7002461000919F2
:100C400089005B18FF21997109499980E5E7012422
:100C5000F4E70224F2E7C046240100D06404002037
:100C6000AAAA000000ED00E0D3200020CD01001072
:100C700001BDFFFF054B064A1360064A136053602F
:100C80009360D3601361536193617047808080806B
:100C900000E400E004E400E0024B9C46614489006B
:100CA000016070474000003410B50400FFF74AFEB1
:100CB00001002000FFF7F0FFFF232371BFF35F8FD8
:100CC00010BDC04610B50400FFF73CFE0100200037
:100CD000FFF7E2FFFF23A380BFF35F8F10BDC04685
:100CE00083680B4810B584466144624412010901CF
:100CF00059189B185C684A680120944201D802D0B8
:100D00000020C0B210BD1A680B689A42F9D8F7E704
:100D1000FFFFFF0F0A4B1968EFF3108072B60A68E5
:100D2000002AFCD0BFF35F8F1B68BFF35F8F0022E8
:100D30001A6080F3108840BF002000217047C04631
:100D4000B8200020F8B5574645464E46DE46E0B589
:100D500098460CAB1C780DAB1B78070091469A4661
:100D60000568002C59D1AC7B002C3BD0660029686B
:100D70003619033E89194B78AB73002B00D1EB7306
:100D800000238B704B700B702D4BE218BB68120167
:100D90009B184A461A6042465A600A9A9A600B9A11
:100DA000DA6000238B704B700B706B7B9B46002BC3
:100DB00026D022006B685946A86898475B465B00BE
:100DC0005B442A68033B002812D058469619B0703D
:100DD000D118D35C002B00D073705B460C706B7322
:100DE0005C450ED0F0BCBB46B246A946A046F8BD55
:100DF000D3189C709119925D002A1CD15B460B7030
:100E00006C734A464346387D00F0B2FB051E0AD19A
:100E10000E9B002BE6D01D70E4E7660029683619AA
:100E2000033E8919B0E75346002BF1D12100386801
:100E300000F0B6FDECE75A705B460B706C73E0E7B0
:100E4000FFFFFF0FF0B5DE4657464E4645460023EE
:100E5000E0B58BB00893684B8200D45800239B46C2
:100E6000099000F025FB02000B006068EFF3108A88
:100E700072B6564601680029FCD0B246BFF35F8FB8
:100E800021684F7B8C46002F2ED0A5685B49A94670
:100E900079180901894449460868496805000E0027
:100EA000AD1A9E41002E5FDD02000B00099800F094
:100EB0005FFB00230022994600230692079300233C
:100EC00098466368BFF35F8F5A461A608AF31088AA
:100ED0004346002B12D10028C3D10BB0F0BCBB4657
:100EE000B246A946A046F0BD002300229946002341
:100EF00006920793002300209846E2E7089B4946A4
:100F000018023843C047626805000E00EFF3108AEC
:100F100072B61368002BFCD0BFF35F8F002E41DB4D
:100F20002B00334302D02369002B56D12368D97B91
:100F3000002905D01A68480041185218033A577022
:100F40009A7B002A00D19F73DF73E268013FD35D73
:100F50000133D3555B4623616368BFF35F8F5A4605
:100F60001A608AF310887CE7002E02D1002D00D091
:100F70009AE70021604600F091FC4B461A685B68D6
:100F8000069207934B469B6898464B46DB6899460A
:100F9000E368DB19013B1B7808931B0203432361C1
:100FA00000208EE72369002BC0D0069A079B802182
:100FB000521BB34109068B4202D30122104B52420D
:100FC00000210491013103914946019141462000DD
:100FD00002970091FFF7B6FEBCE700F069FA2A001D
:100FE000330012184B41802109068B42E8D30122BD
:100FF000034B5242E4E7C046A4140020FFFFFF0F5A
:10100000FFFFFF7F10B5144C6368002B04D00A214A
:101010001248FFF741FE10BD2300114A102120683D
:1010200000F058FB032000F037FA032000F008FB23
:1010300003200C4900F056FAFFF784FC0A4B9C464B
:1010400003232375D0231B061B6860446375074B7D
:1010500080006060DC60DAE7AC040020B82000208B
:10106000E10C0010450E001040000034A4140020D4
:10107000F0B557464E464546DE46E0B585B001938D
:1010800010AB1B780600039300239A469846009203
:101090007268EFF3108B72B61368002BFCD0BFF3AD
:1010A0005F8F3568AC7B002C00D16EE067002B6849
:1010B0003F19033FDB195A78AA73002A00D1EA735B
:1010C000484AA118B26809015218009801991060A5
:1010D00051600E9991600F99D16042469A705A7092
:1010E0001A706B7B9946002B00D16BE022006B6875
:1010F0004946A86898474B465B004B442A68033B27
:10110000002856D04846D719B870D118D35C002BA8
:1011100000D07B704B460C706B734C4553D0F3681A
:101120001B19013B18787368BFF35F8F42461A6042
:101130008BF310885346002B08D10002204305B0E2
:10114000F0BCBB46B246A946A046F0BD039B002BAF
:1011500046D00E9B00200F99984703000B433FD0C9
:1011600004000D1E1ADA009A019B121BAB4100927B
:10117000019380221206934204D301231A4C5B424E
:1011800000930194039B9A4682E77368BFF35F8FD5
:101190001C608BF3108801204042D0E700F088F9F2
:1011A0008022001969411206009001919142E9D311
:1011B000E3E7D3189C70D119D25D002A00D05A7091
:1011C0004B460B706C73307D009A019B00F0D0F998
:1011D00082460028A3D02100306800F0E1FB9EE7A2
:1011E0000020ACE7FFFFFF0FFFFFFF7FF0B504001B
:1011F0000D0006267642F717C64636196F4100B530
:1012000084B08F4214D811D000F052F932003B0064
:10121000121A8B41002B15DC002B3ED02000290038
:1012200000F050F904B080BCB846F0BD8642EBD95E
:101230000026002700F03CF932003B00121A8B41D7
:10124000002BE9DD002302930193154B320000933C
:1012500014483B00FFF70CFF0028DFDB0023984613
:10126000BC46114A114F7B6A9C4504D8B96A8E422C
:10127000D4D99C45D2D11168EFF3108072B60B68B7
:10128000002BFCD0BFF35F8F1368BFF35F8F414625
:10129000196080F3108820BFE5E7002ABED0D1E7AF
:1012A000150D0010AC040020B820002000400540BF
:1012B00070B504000D0000F0FBF8802300196941AF
:1012C0001B06994202D3012002494042FFF78EFFDC
:1012D00070BDC046FFFFFF7F70B5060000F0E8F864
:1012E000FA2204000D00002330000021920000F0DB
:1012F000E3FE8023001969411B06994202D30120B5
:1013000002494042FFF772FF70BDC046FFFFFF7FFA
:10131000F0B5EFF30583CE46474680B505000C00D7
:1013200085B0002B12D02A4A0020536AA34203D36F
:10133000926A0130AA4204D305B0C0BCB946B04697
:10134000F0BD1B1B5A1E9341D8B2F5E7214E029304
:101350000193214B0200009330000B00FFF788FE41
:10136000031EE0DD20BF7168EFF3108772B60A68D4
:10137000002AFCD0BFF35F8FDAB29446FF223068B8
:101380001A40417B61450FD001688946510088466B
:1013900049469044414403398978002904D132698F
:1013A000934209D1316107E0F1681B0A8A18013ABA
:1013B0001278DBB29A4207D07368BFF35F8F0022C6
:1013C0001A6087F31088AEE7614600F0E9FAF3E7A8
:1013D00000400540AC040020150D0010F0B5EFF3FF
:1013E0000582D6464F4646461000C0B51038EFF38A
:1013F000108872B6214C2368002BFCD0BFF35F8F9E
:101400000123190081401E4D1F006963AA461D4D2E
:1014100029601D4D2E78AC463500C5402F402B422B
:1014200015D053465F6A194B8500EB589F4218D37D
:101430006246174B8E43EB581670BFF35F8F002246
:10144000226088F31088002B06D0984704E0BFF391
:101450005F8F276088F31088E0BCBA46B146A84683
:10146000F0BD0C4B92009C46624413681360BFF3BE
:101470005F8F0023236088F31088EDE7280100D0F8
:10148000004005403C700540D4200020BC200020D6
:1014900030140020D03F054010B5034B0100180068
:1014A000024AFFF71FFA10BDD22000207029001059
:1014B000034B596A0A00986A596A8A42FAD17047FE
:1014C00000400540064A536A9942FCD807D1044BB4
:1014D00002E05A6A914202D19A6A8242F9D3704775
:1014E0000040054070B504000D00EFF3108672B6A1
:1014F0001A4A1368002BFCD0BFF35F8F002D1BD05E
:101500002000FFF749FA164981420AD02000FFF770
:101510004BFA01212000FFF721FA0123A340114AD1
:101520001360114BA400E550BFF35F8F00220B4BFB
:101530001A6086F3108870BD0121A1400A4BA200F9
:10154000D5500A4B20001A788A4305491A70FFF7D4
:1015500055FA00212000FFF701FAE5E7280100D045
:10156000DD1300103860054030140020D420002026
:10157000F0B54F46D6464646C0B507002B4C616ACB
:101580000D00A66A616AA942FAD18B4208D805D03B
:101590000120E0BCBA46B146A846F0BDB242F7D938
:1015A000EFF3108A72B6224801680029FCD0BFF31D
:1015B0005F8F0125BD401F491C4C8846097889462C
:1015C0002943C9B28C46414660460870391D8900DE
:1015D00065630A511849B8004350216A0020294226
:1015E00019D0616A0800A66A616A8142FAD18B4209
:1015F00019D801D1B24216D8CC450BD00B4B1F22C3
:101600001D625D6301233A4093400C4A13604346D8
:101610004A461A700120BFF35F8F0022044B1A6004
:101620008AF31088B5E70020F5E7C0460040054082
:10163000280100D0D4200020BC20002080E200E05F
:10164000EFF3108C72B60A490B68002BFCD0BFF385
:101650005F8F01238340074A0748136202789A4349
:101660000270BFF35F8F00230B608CF3108870470C
:10167000280100D000400540D420002070B50600AD
:101680000D00140000291DD0002A12D07368806854
:10169000984762006B0012195B193168033A033BEB
:1016A000002808D08A189570C818CB5C002B0BD185
:1016B0000470280070BDCB189C7088188A5C002AC2
:1016C00005D105702000F5E753700470F1E75A70FA
:1016D0000570F7E710B583600023CCB24373013384
:1016E000426004738373C4730068421C012C05D9E3
:1016F0000133DBB2137003329C42F9D1FF230B405C
:101700005A00D318C01800230338437010BDC046D8
:1017100070B505000C1E07D0630001681B19033B60
:10172000CB185A78002A01D1200070BD50008018D3
:101730000338091800204E7848702100587028009E
:10174000FFF79CFF310004002800FFF7E1FF0600CF
:10175000002C20D00028E7D0320021006B68A86858
:1017600098477200630092191B192968033A033BDA
:10177000002808D08A189470C818CB5C002B00D0C1
:1017800053700670D0E7CB189E7088188A5C002AC8
:1017900000D05A7004703400C6E7C046F0B5574612
:1017A0004546DE464E46E0B50D006F0001687F19E4
:1017B000033F0400C85D83B00192CA19002850D0CD
:1017C00043001B18033BCB185E78B446002E1AD199
:1017D000019E002E42D0E67B002E04D073009B19A0
:1017E000CB18033B5D70A37B002B00D1A573E57381
:1017F00000282FD10023537003B0F0BCBB46B24683
:10180000A946A046F0BD72006244033A8A18517896
:10181000884600215170894659703200010020002D
:10182000FFF72CFF43468246002B07D05B00216860
:101830004344033BCB185A78002A16D142465146FE
:101840002000FFF71BFF2168019BCA19002BC2D1A2
:101850000028CFD043001B18033BCB180021997000
:10186000C8E7019B002BB6D1C4E7500080180338AD
:101870000918487883464846487058704146200009
:10188000FFF7FCFE594680462000FFF741FF414626
:1018900002002000FFF7F2FE8046CFE7F0B5574682
:1018A0004546DE464E46E0B583B00191457B0400D7
:1018B0006F0000687F19033FC15DC219002952D033
:1018C0004B005B18033BC3185E78B446002E1CD156
:1018D000019E002E44D0E67B002E04D073009B199D
:1018E000C318033B5D70A37B002B00D1A573E57388
:1018F000002931D1002328005370617303B0F0BC7C
:10190000BB46B246A946A046F0BD72006244033A07
:1019100082185078804600205070814658703200FE
:101920002000FFF7ABFE43468246002B07D05B004A
:1019300021684344033BCB185A78002A17D142460A
:1019400051462000FFF79AFE019B01002068C21952
:10195000002BC0D10029CDD04B005B18033BC3182E
:1019600000209870C6E7019B002BB4D1C2E750005D
:1019700080180338091848788346484648705870DC
:1019800041462000FFF77AFE594680462000FFF7C7
:10199000BFFE414602002000FFF770FE8046CEE702
:1019A00070B5050000292CD0437B8B422ED04C0013
:1019B00000686418033C0419A278002A21D053005F
:1019C0009B18033BC25CC6188A4202D11BE0002A66
:1019D00008D053009B18033BC3185A788A42F6D1AB
:1019E00062785A70002301222800A3706370FFF709
:1019F000D5FE697B02002800FFF740FE68730120D6
:101A000000E0002070BD63783370EBE7012219001D
:101A1000FFF7C4FEF2E7C04610B50C2082B000F01C
:101A2000B1F9FEF757FF002810D08B4B8B488B493C
:101A30008B4A186059609860D96018615961986143
:101A4000D961186259625A6202B010BD854CA06714
:101A500000F0A0F90122844B1A60636C012BFCD1C9
:101A60000322824B1A607F4A936B012BFCD1013316
:101A700001217F4A7F480093043300F031F90523A8
:101A80007D4A009301217D4800F02AF97C4B5A6879
:101A9000FF2A02D8802252005A608022734B6E4C7B
:101AA00012011A602169002907D0606900F07CFAF0
:101AB000013043001B18033BFDD2E022704B7148FC
:101AC00019680A40026002221968514001320A4036
:101AD000042102609A681142FCD080216A4A0901FF
:101AE0001160802252005A60684B2361684B59682C
:101AF000FF2900D85A60032201215B4B1A60644A17
:101B000093681942FCD0E0231068034061480360E9
:101B1000126803234A40022113405D4A0360936820
:101B20001942FCD080215C4B0901196080215B4B7C
:101B30004900516063615A4B5A68FF2A00D85960C6
:101B40008022584B12011A60E169002907D06069B0
:101B500000F02AFA013043001B18033BFDD2E023BA
:101B60004F4A11680B4050490B6080214F4B0901CF
:101B700019608021394B49005160E3614C4B5A6830
:101B8000FF2A00D8596080224A4B12011A60216A4C
:101B9000002907D0606900F007FA013043001B18E4
:101BA000033BFDD2E023424A11680B4042490B60DF
:101BB0008021424B0901196080235B005360802221
:101BC000264BD20223623E4B5968914200D25A60A2
:101BD00080223C4B12011A60616A002907D06069BB
:101BE00000F0E2F9013043001B18033BFDD2E02373
:101BF000334A11680B4034490B608021334B090193
:101C000019608023DB025360154B6362304B5A68C6
:101C1000FF2A02D8802252005A6080222D4B1201E6
:101C20001A60A169002907D0606900F0BDF9013090
:101C300043001B18033BFDD2E023254A11680B40EB
:101C400025490B608021254B0901196080235B0029
:101C50005360124BA361F7E6700F0020006CDC02AA
:101C60001BB70000008000403CB0004030B0004096
:101C7000002F685900800240008C864700C0024057
:101C8000308000403090004030A00040001BB70082
:101C90003C8000403C9000403CA00040405973070D
:101CA0005480004054B000405490004054A0004084
:101CB0006080004060B000406090004060A0004044
:101CC0006C8000406CB000406C9000406CA0004004
:101CD0004880004048B000404890004048A0004084
:101CE000F8B5040022481E0017000D0000F05CF952
:101CF0000100380000F058F9069B36041B031E4310
:101D00002368002B22DB1B4B1B49E3185A1E93410F
:101D10008022920194465B421B0B184A1B036344CA
:101D20001360174A13601F008A689743FBD1C022D3
:101D3000231D92011A4321232560A06013602368AC
:101D4000002BFCDA0823E6601360F8BD3F2322680D
:101D50001340AB42D7D1A3681B051B0D8342D2D1E0
:101D6000EE22E368D2021340B342CCD1EDE7C04685
:101D7000001BB7000040FDBF00C0004000E0004075
:101D800000F000408023024A9B000343D362704767
:101D900000800540AA23064A1B0113602F23054932
:101DA000D360054B19605368002BFCDA7047C046BE
:101DB0000040024000B0FA00006002402C4B2D4A67
:101DC00070B51A602C4A2D4B2D491A6014008B688F
:101DD0009C43FBD12B4D2C4EB54208D2013E761BC5
:101DE000B60808CD984723000134B342F9D1FFF774
:101DF00013FE264A214B1A60214A9368DB43DB011C
:101E0000DD09002BF9D14022214B224C224E9A674A
:101E10005A671A67DA66B44208D223682000002B9A
:101E200020D00834FEF74EFFB442F6D31B4C1C4EB4
:101E3000C022B168200000F055FAB460FEF774FDCE
:101E4000FEF718FFFFF7DEF8164C174EB44208D223
:101E5000013E361BB60808CC98472B0001359E4240
:101E6000F9D170BD0834FEF71FFFB442D5D3DDE7CA
:101E700000E00040BFCDFBFEFE7F3C0000F00040D4
:101E800000C00040580F0020680F0020FFFFFF0136
:101E900000F00140480F0020580F002000000020F3
:101EA00000ED00E0680F0020700F002000BEFDE78D
:101EB00010B5FFF7FBFFC0460FB400B5084883B06C
:101EC00000F0ACFA049B002B07D005A91800019183
:101ED00000F018F8034800F0A1FA0120FFF7E6FF30
:101EE00094290010A429001010B50148FFF7E4FF61
:101EF000A829001010B5002800D110BD00F042FA4A
:101F0000FBE7C04610B5094A0300146884B0002CF2
:101F100008D0012200910648524203A9A04701209F
:101F200004B010BD00F07AFA0020F9E78814002010
:101F3000F51E001001480421014B1847E004002061
:101F4000651F0010142310B50100188804331B8886
:101F5000984710BD162310B50100188802331B885E
:101F6000984710BDF8B54746CE4680B50F1E19D02C
:101F700014239946043304000025012698464B4655
:101F80001888434621681B88984701C4431E98411E
:101F9000013540420640AF42F1D13000C0BCB946E5
:101FA000B046F8BD0126F8E7114A936F9B0813D29B
:101FB00010665166002905D0FFE7FFE7FFE7516F84
:101FC000106F704704B5002801D00020C04300F016
:101FD000BFFC002104BDC046F0B5146E556E576FAE
:101FE000166FFFF7E5FF1466556657671667F0BD75
:101FF000000000D0132370B51D78012D15D010DD21
:102000001D48FFF7A7FF1D4C01008022200000F0B3
:1020100069F9022D2DD01A48FFF794FF194B18606B
:1020200070BD194B154CA364F5E7174B134C236097
:102030006360A360E36023616361A361E361236282
:102040006362A362E36223636363A363E363236462
:102050006364A364E36423656365A365E365236642
:102060006366A366E36623676367A367E367A364A6
:10207000D1E7054BA364CEE753440000981000203D
:102080004C330000B42000208D20001007B56046BE
:1020900001880A0A0230DF2AFAD1C9B2820804D3C1
:1020A000028840880004104300E00068014A505054
:1020B000039007BD9810002051434343C9188C4634
:1020C000110C83B24B4310B4040C614392B280B242
:1020D000504362431C041B0C001910BC59411304EB
:1020E000120CC01851416144704700004840414003
:1020F00048400E4B5B6818470C4B1B6818470C4A4E
:10210000936F9B0802D2094BDB681847F0B5146E39
:10211000556E576F166FFFF7F6FF054A1466556642
:1021200057671667F0BD014B9B6818479811002050
:10213000000000D007B548404140484001E0C0469B
:1021400007B54200120E03D0FF2A03D1420218D86D
:10215000C00DC0054A00120E03D0FF2A03D14A0267
:102160000FD8C90DC9050122414005D4414001D510
:10217000814207BD884207BD0143491801D0C043D1
:10218000001807BD00B5FFF7DBFF804100BDC0466A
:1021900000B5FFF7D5FF01D9002000BD012000BD2B
:1021A00000B5FFF7C7FF01D9002000BD012000BD29
:1021B00000B5FFF7BFFF804100BD0000C10FC90798
:1021C00000D54042002817D0F44603B40B4B1B68DF
:1021D000984706BC81409E384042803107D20B06AA
:1021E00007D04900490AC005104308436047013041
:1021F000F8E7490A8902F5E770470000B42000209B
:10220000014B5B6A1847000098110020132310B59A
:1022100012481C78FFF79EFE0100012C0AD003DD56
:1022200080220F4800F05EF80E48FFF78BFE0E4B41
:10223000186010BD0A4C5422200000F053F80B4BDC
:102240006365A365E36523666366A366E366236748
:102250006367A367E3672362E361E5E75346000032
:10226000981100204C330000B4200020A922001057
:1022700043001B0E7F3B5A1C0DDB5A1C0ED0172B44
:1022800008DA1622D21A0123934018180223934029
:102290005B4218407047C00FC007FBE7C00FC30781
:1022A000FE2080051843F5E707B5604601880A0A55
:1022B0000230DF2AFAD1C9B2820804D302884088EA
:1022C0000004104300E00068014A5050039007BD2D
:1022D0009811002001480421014B1847F004002008
:1022E000651F0010014B5B6818470000F0040020D8
:1022F000F0B5C64600B5437D07000D001600002B63
:1023000038D0002A2EDD00216A1E90466A5C037DCB
:102310004C1C00200A2A0CD0A64216D043461B5D56
:1023200021000D3B5A4253416A5CDBB24C1C0A2A25
:10233000F2D1002BF0D1884217DB022110483B6814
:102340009847A64207D02000E8E7864203DD311A0D
:102350003B6828189847AD19013D2B780D3B5A4230
:1023600053413B7580BCB846F0BD091A3B6828183C
:102370009847E2E70368110028009847F2E7C04653
:10238000142A0010F0B5CE46474680B583B06B46A0
:102390000600DD1D2870FFF78BF800231A4A12187B
:1023A0004B41802109068B4202D30122174B524236
:1023B00017490800884600F0D3FA164B81461C687E
:1023C000002C14D0144F02E02469002C0FD0236895
:1023D000002BF9D03B68002B01D0A342F4D12000A0
:1023E00001222900FFF784FF2469002CEFD14B461E
:1023F000002B05D1300003B0C0BCB946B046F0BDDB
:10240000404600F09DFAF5E740420F00FFFFFF7FD6
:10241000500F00208014002084140020F0B5DE4608
:1024200057464E464546E0B585B0070000F0F8F93E
:102430000600FFF73DF800232B4A12184B4180217C
:1024400009068B4202D30122284B52422849080038
:102450008B4600F085FA274B01901C689A46002CA9
:102460003BD0254B984602ABDD1D0A23994602E07E
:102470002469002C17D02368002BF9D043461B6831
:10248000002B01D09C42F3D1200032003900FFF72D
:102490002FFF4B462000012229002B70FFF728FF59
:1024A0002469002CE7D1019B002B18D153461C68EE
:1024B000002C06D06368002B0BD098472469002CB1
:1024C000F8D1300005B0F0BCBB46B246A946A046E4
:1024D000F0BD2469002CEDD1F3E70028F1D0584677
:1024E00000F02EFAE2E7C04640420F00FFFFFF7FF8
:1024F000500F0020801400208414002003BDC0462B
:1025000010B50400FEF7B6FBA04710BDF0B50400FF
:1025100087B00F200E001700FEF732FA00210500E9
:102520000F20FEF71BFA00230022009201930123E3
:102530000293D02304960594002600240121022052
:1025400003971B06002C14D01A6D1042FCD05C655A
:1025500040BF1A6D114203D120BF1A6D1142FBD04A
:102560009A6DA2420AD000266C46B200A458E9E750
:102570009A6D1A6D1142FBD140BFE5E70136062E78
:10258000F2D129000F20FEF7E9F907B0F0BDC046EF
:102590000D4B0E4A10B5934210D30D4A99181A00EC
:1025A0000B4C1051FF20C00013500A4B0A48135027
:1025B0000A4B0B489A68FFF7A9FF10BD01235B4245
:1025C0001A000849ECE7C046000804200000042077
:1025D000F407000001250010FC07000000ED00E0FA
:1025E000FD240010F3070000D023090201431B065D
:1025F0001961704710B501200021FEF759FE10BD8A
:1026000010B50020FEF748F90120FEF745F9022039
:10261000FEF742F90320FEF73FF90420FEF73CF9EC
:102620000520FEF739F90620FEF736F9D0240720F9
:10263000FEF732F901232406636201336362023339
:10264000636204336362083363621033636220336E
:102650006362403363620820FEF71EF90920FEF72B
:102660001BF90A20FEF718F90B20FEF715F90C20CC
:10267000FEF712F90D20FEF70FF90E20FEF70CF908
:102680000F20FEF709F980235B006362DB186362A9
:102690008023DB00636280231B01636280235B0174
:1026A000636280239B0163628023DB01636280237A
:1026B0001B02636210BDC046802040007047C046C8
:1026C000802040007047C046F8B54746CE460023FC
:1026D00080B59846204E214F214C224D21E000210B
:1026E00053009B189B00E258002A18D0E2189088EB
:1026F000002814D089008946E0588446D088E358E1
:1027000011894B445B884A46C91863469B5A89B273
:10271000C01880B2FFF768FF2B8801332B80FFF7CA
:1027200069FF3388002BFAD03A8853009918890042
:102730006118888829888842D3D8434601322B8083
:10274000338892B23A809A42C9D3434600213B80F3
:1027500000220023C5E7C046D0200020CE20002064
:10276000B4140020CC200020F0B5164C2588FF2D95
:1027700026D8002824D0002922D02788124D7E0098
:10278000F619B6007051268870008019800028184C
:10279000818020884100091889006918CA80218831
:1027A0004A0052189200AA181381238801339BB261
:1027B00023802388013B5800C01880004019F0BDD9
:1027C0000020FCE7D0200020B414002010B5FFF753
:1027D00017FF0248FFF7DCFE10BDC046C9260010F7
:1027E00010B5010000230022002000F047F810BDC2
:1027F00070B5074C074D641BA41005D0013CA30025
:10280000EB589847002CF9D100F098F870BDC046FD
:10281000700F0020700F00207047C0467047C04600
:1028200010B583070AD00300032102E001330B42F5
:1028300005D01A78002AF9D1181A10BD03001968BA
:102840000C4A0D4C8A188A4322420FD15968094A12
:1028500004338A188A43224208D15968054A04334E
:102860008A188A432242F1D000E001331A78002A04
:10287000FBD1E1E7FFFEFEFE80808080F0B5D6460A
:102880004F4646469846244BC0B5060018689A46FF
:102890000F009146FFF7C0FF204B1D68002D32D07E
:1028A00053466C6818681F2C30DC002E0CD1631C5A
:1028B0000234A4006B606751FFF7B0FF0020E0BC5A
:1028C000BA46B146A846F0BD49468822A300EB1897
:1028D0009950C42149008C46AC446146873AA240D5
:1028E00009689146114362461160842142464900BD
:1028F0005A50022EDBD129004A468D31FF310B6838
:1029000013430B60D3E7064D1D60C9E7FFF786FF51
:1029100001204042D3E7C046440F00209812002017
:102920009C120020034B10B5002B02D00248FFF789
:1029300057FF10BD00000000F1270010F8B5C04699
:1029400001B40248844601BC604700BF5D0100201D
:1029500001B40248844601BC604700BF85010020E5
:1029600001B40248844601BC604700BFC10000209A
:10297000486172647761726520616C61726D2025B7
:102980006420616C726561647920636C61696D6556
:10299000640000000A2A2A2A2050414E4943202A76
:1029A0002A2A0A000A0000004861726420617373D9
:1029B0006572740052656C6561736500626F6F7457
:1029C000325F77323571303830000000312E352ECD
:1029D000310000007069636F00000000706F6E6767
:1029E000000000004E6F7620203520323032330058
:1029F00006005250D3F07542B42900100600525020
:102A0000E182887FBC29001006005250BBFF3CB613
:082A1000D42900100D0A00009A
:102A1800F0290010FC29001088020010082A001074
:0C2A280094020010A0020010AC0200108C
:102A3400F0B5C646150000B504001E000268EFF3A9
:102A4400108172B61368002BFCD0BFF35F8F042390
:102A5400E356002B2DDB2268BFF35F8F002010604C
:102A640081F31088D0221206127852B290469A420C
:102A740003D1002080BCB846F0BD00270BE02368DA
:102A8400BFF35F8F1F6081F310882800310000F0CE
:102A940033F80028EDD12268EFF3108172B6136881
:102AA400002BFCD0BFF35F8F23797F2BE7D94346FC
:102AB40002E0D0231B061B6823712368BFF35F8FDA
:102AC40000221A6081F310880120D3E70268EFF333
:102AD400108172B61368002BFCD0BFF35F8FFF2305
:102AE40003710368BFF35F8F00221A6081F31088BB
:102AF40040BF70477047C04601B40248844601BCD9
:102B0400604700BF11130010000000001000000017
:102B1400200000001000000000000000FF00800002
:102B2400FF007000FF006000FF005000FF00400045
:102B3400FF003000FF002000FF001000FF00000035
:102B4400F0000000E0000000D0000000C000000021
:102B5400B0000000A0000000900000008000000011
:102B6400840004008000080084000C008000100031
:102B7400840014008000180084001C0080002000E1
:102B8400840024008000280084002C008000300091
:102B9400840034008000380084003C008000400041
:102BA400840044008000480084004C0080005000F1
:102BB400840054008000580084005C0080006000A1
:102BC400840064008000680084006C008000700051
:102BD400840074008000780084007C008000800001
:102BE4008000000070000000600000005000000041
:102BF4004000000030000000200000001000000031
:102C04000000000000001000000020000000300060
:102C14000000400000005000000060000000700050
:102C240000008000C000FF00D000FF00E000FF00B3
:102C3400F000FF00FF00FF00FF00F000FF00E000D5
:102C4400FF00D000FF00C000FF00B000FF00A000A4
:102C5400FF009000FF008000800080008000FF00E3
:102C64009000FF00A000FF00B000FF00C000FF00C4
:102C74004000FF005000FF006000FF007000FF00F4
:102C84008000FF008400FC008000F8008400F40051
:102C94008000F0008400EC008000E8008400E40080
:102CA4008000E0008400DC008000D8008400D400B0
:102CB4008000D0008400CC008000C8008400C400E0
:102CC4008000C0008400BC008000B8008400B40010
:102CD4008000B0008400AC008000A8008400A40040
:102CE4008000A00084009C00800098008400940070
:102CF4008000900084008C008000880084008400A0
:102D04008000800000008000000090000000A0000F
:102D14000000B0000000C0000000D0000000E0008F
:102D24000000F0000000FF001000FF002000FF0082
:102D34003000FF004000FF0001000000020000001E
:102D4400030001000300020002000300010003006D
:102D5400000002000000010001000000000000006B
:102D64000100000002000000030000000400000055
:102D7400040002000400040004000600040008002B
:102D840004000A0004000C0004000E0004001000FB
:102D940004001200040014000300140002001400D4
:102DA40001001400000014000000120000001000D4
:102DB40000000E0000000C0000000A0000000800E3
:102DC40000000600000004000000020000000000F3
:102DD40010000000000000000000010000000000DE
:102DE40000000000000002000000000000000000DD
:102DF4000000030000000000000000000000FF00CD
:102E04000000000001B5486801318E460047704655
:102E140009380149884701BDC10B0010C4040020D2
:102E240000000000980F0020401400200000000063
:102E3400000000005014002000000000000000000A
:102E4400100000000000000000000000000000006E
:102E5400503300004C330000543300005233000060
:102E64004D5300004D430000533400004334000030
:102E74000D000D000D000D000D000D000D000D00E6
:102E84000D000D000D000D000D000D000D000D00D6
:102E94000D000D000D000D000D000D000D000D00C6
:102EA4000D000D000D000D000D000D000D000D00B6
:102EB400000009000A00190011000D000C000500B3
:102EC40004000400090007000500030005000300D6
:102ED4000E00070008000B0007000B000B000500A4
:102EE4000C000B000D000D000D000D000D000D0079
:102EF4000D0007000B00080008000B0009000A0081
:102F04000900090008000A0007000700070009007B
:102F140008000F0009000A0006000B000700090062
:102F24000700050007000D000D000D000D000D0049
:102F34000D000D000D000D000D000D000D000D0025
:102F44000D000D000D000D000D000D000D000D0015
:102F54000D000D000D000D000D000D000D000D0005
:102F64000D000D000D000D000D000D000D000D00F5
:102F7400100F0020100F0020100F0020100F002051
:102F8400100F0020100F0020100F0020100F002041
:102F9400100F0020100F0020100F0020100F002031
:102FA400100F0020100F0020100F0020100F002021
:102FB400100F0020100F0020100F0020100F002011
:102FC400100F0020100F0020100F0020100F002001
:102FD400100F0020100F0020100F0020100F0020F1
:102FE400100F0020100F0020100F0020100F0020E1
:102FF40000000000EC0E0020C40E0020600E002033
:103004001C0E0020E80D0020B80D0020A40D0020A7
:10301400940D0020840D0020600D0020440D00203C
:10302400300D0020240D0020100D0020040D002080
:10303400CC0C0020B00C0020900C0020640C00206C
:10304400480C00201C0C0020F00B0020DC0B00209E
:10305400AC0B0020800B0020100F0020100F00206C
:10306400100F0020100F0020100F0020100F002060
:10307400100F0020640B0020380B0020180B0020D8
:10308400F80A0020CC0A0020A80A0020800A0020A8
:103094005C0A0020380A0020180A0020F0090020E9
:1030A400D4090020B80900209C09002078090020D8
:1030B400580900201C090020F8080020D00800202E
:1030C400B80800208C080020700800204C0800205C
:1030D400300800201C08002000080020100F0020E9
:1030E400100F0020100F0020100F0020100F0020E0
:1030F400100F0020100F0020100F0020100F0020D0
:10310400100F0020100F0020100F0020100F0020BF
:10311400100F0020100F0020100F0020100F0020AF
:10312400100F0020100F0020100F0020100F00209F
:10313400100F0020100F0020100F0020100F00208F
:10314400100F0020100F0020100F0020100F00207F
:10315400100F0020100F0020100F0020100F00206F
:10316400100F0020100F0020100F0020100F00205F
:1031740000001000060010000C00100006000800FB
:1031840000000000060000000C0000000600000023
:103194000600080000001000060008000C001000E3
:1031A40000000000060008000000100006000800EF
:1031B4000C001000060008000C00000000000000D5
:1031C40000000800000010000000080000000000DB
:1031D400060008000C0000000C0008000C001000A1
:1031E40006000000030008000000100003000800AF
:1031F40006000000090008000C0010000400000094
:103204000000040000000800000010000000080096
:103214000000040004000000080000000C0004008A
:103224000C0008000C001000060000000600080056
:103234000600100000001000060010000C00100032
:103244000000040004000000080000000C0004005A
:10325400080008000400080000000C00040010002E
:10326400080010000C000C00000000000000080022
:10327400080008000C000C000800100000001000FA
:1032840000000800060004000C0000000400000018
:1032940008000000040000000000040000000C000E
:1032A40004001000080010000C000C000C000400C6
:1032B4000A000200080004000A00020008000000DE
:1032C4000A0002000C0000000000000000000800DA
:1032D400080008000C000C0008001000000010009A
:1032E40000000800000000000400000000000400CA
:1032F40000000C0004001000080010000C000C007A
:103304000C0004000800000004000000000000009D
:103314000000080000001000060008000C00000077
:103324000C0008000C001000000000000000080061
:1033340000001000060008000C0010000C0008003B
:103344000C00000000000000000008000000100055
:103354000000080000000000060000000C0000004F
:103364000000000000000800000010000000080039
:1033740006000C000C00100006000C000000080001
:10338400060004000C00000000000400040000001B
:1033940008000400080008000800100000001000E5
:1033A400080010000C0010000000000006000000DF
:1033B4000C000000060000000600080006001000D3
:1033C40000001000060010000C00100000000000B7
:1033D40000000800000010000000080006000800BB
:1033E4000C0008000C0010000C0008000C00000089
:1033F400080006000C0006000C0004000800000091
:10340400040000000000040000000C000400100090
:10341400080010000C000C00000000000000080070
:10342400060008000C000800060008000000080060
:1034340000001000060010000C0010000C0000003A
:10344400060000000000000000000800060008005C
:103454000C0008000600080000000800000010002E
:10346400060010000C00100000000000080000001E
:103474000C0004000C000C000800100000001000F8
:1034840000000800000000000C0004000800000018
:10349400040000000000040000000C000400100000
:1034A400080010000C000C000000000008000000E0
:1034B4000C000400080008000000080008000800D0
:1034C4000C000C00080010000000100000000800B0
:1034D40000000000000000000300080009000800CC
:1034E4000300080006001000090008000C0000009A
:1034F4000000040004000000080000000C000400A8
:103504000C000C00080010000400100000000C0067
:1035140004000800080008000C000C000400080067
:103524000000040004000000080000000C00040077
:10353400080008000400080000000C00040010004B
:10354400080010000C000C00080008000600000031
:10355400090008000C001000060010000000100014
:103564000000040004000800080008000C00040027
:1035740008000000040000000000040000000C002B
:1035840004001000080010000C000C0000000400EF
:1035940004000000080000000C00040008000800FB
:1035A400040008000000080000000C0000001000E7
:1035B400060010000C0010000800000008000800BD
:1035C4000800100004000C000000080006000800B9
:1035D4000C000800000004000400000008000000C3
:1035E4000C0004000800080004000800080008009B
:1035F4000C000C00080010000400100000000C0077
:103604000C00000006000000000000000600060098
:103614000C000C00080010000400100000000C0056
:1036240000000000060000000C000000060000007E
:10363400060008000600100000000A000400000054
:1036440002000200060008000A000E00060008003E
:10365400020002000000040000000C00040010003E
:10366400080010000A000E000C000C000C000400FE
:103674000800000003000000060008000900100014
:10368400050000000500020007000200070000001A
:103694000500000000000800060008000C000800F7
:1036A40003000000040006000800060005000000F6
:1036B40003000000000008000600080006000D00DA
:1036C400060008000C0008000600080006000200BE
:1036D4000400070006000A0002000B0006000A00AE
:1036E40006000E0006000A000A000B0006000A008D
:1036F400080007000400100008000C000800040083
:10370400040000000800100004000C000400040081
:103714000800000005000A00040010000800100062
:1037240007000A0005000A000C000400080000005D
:1037340004000000000004000000060004000A0069
:1037440008000E00060010000400100002000E0025
:10375400070007000C00000000000000060008003D
:103764000C0010000300100000000D0003000A000C
:1037740006000D000300100009000000060003000D
:10378400090006000C000300090000000000050009
:103794000400020006000200060000000600020009
:1037A40006000800060010000600080006000200DB
:1037B400080002000C0005000800080004000800CE
:1037C40000000B0004000E0008000E000C000B00AB
:1037D40000000000010004000000040001000400D7
:1037E40005000400090004000500040001000400B1
:1037F4000200080003000C0000000C0003000C0091
:103804000400100003000C0008000C000B000C0066
:103814000C0010000B000C000C000C000B000C0042
:103824000A000800090004000C0004000900040058
:103834000800000002000A0001001000050010004A
:1038440004000A0002000A000A000A0008000A0034
:10385400070010000B0010000A000A000500000019
:103864000500020007000200070000000800100025
:103874000700040005000400040010000800100004
:1038840000000000060008000C00100006000800FC
:1038940000000000000008000000100006001000F6
:1038A4000C0010000C0008000C00000006000000D2
:1038B400000000002C1400200000000000000000A4
:1038C4000000000000000000D5220010351F001089
:1038D400F51F00100D22001025290010BD02001054
:04000005100001E9FD
:00000001FF
